:020000040800F2
:100000005809002095020008C72E00086D2B000833
:10001000C52E00086B080008393F000800000000EA
:10002000000000000000000000000000CB2E0008CF
:100030006D08000800000000C92E0008292F0008E4
:10004000AF020008AF020008AF020008AF020008CC
:10005000AF020008AF020008AF020008AF020008BC
:10006000AF020008AF020008AF020008AF020008AC
:10007000AF020008AF020008AF020008AF0200089C
:10008000AF02000800000000AF020008AF02000845
:10009000AF020008AF020008AF020008AF0200087C
:1000A000AF020008A52F0008AF020008AF02000849
:1000B000AF020008AF020008B12F0008AF0200082D
:1000C000AF020008AF020008AF020008AF0200084C
:1000D000AF020008AF020008AF020008AF0200083C
:1000E000AF020008AF020008AF020008AF0200082C
:1000F000AF020008AF020008AF02000800000000D5
:1001000000000000AF02000800000000AF0200087D
:10011000AF02000800000000AF020008AF020008B4
:10012000AF020008AF020008AF020008AF020008EB
:10013000AF0200080000000000000000AF0200084D
:10014000AF020008AF02000800000000000000003D
:10015000000000000000000000000000000000009F
:10016000000000000000000000000000AF020008D6
:10017000AF020008000000000000000000000000C6
:1001800000000000AF0200080000000000000000B6
:10019000000000000000000000000000000000005F
:1001A0000000000000000000AF020008712B0008F2
:1001B000AF020008AF020008AF0200080000000014
:1001C00000000000AF020008000000000000000076
:1001D000AF020008AF02000800F002F800F04AF891
:1001E0000AA090E8000C82448344AAF10107DA4592
:1001F00001D100F03FF8AFF2090EBAE80F0013F09A
:10020000010F18BFFB1A43F001031847FC40000020
:100210001C410000103A24BF78C878C1FAD85207B0
:1002200024BF30C830C144BF04680C607047000070
:100230000023002400250026103A28BF78C1FBD8EF
:10024000520728BF30C148BF0B607047642900F0D7
:100250000181002070471FB504F030F800F0A2FAC9
:1002600004000020002104F013F8401C60601FBD52
:1002700010B510BD00F071FA1146FFF7ECFF03F066
:100280009DFF00F0A1FA03B4FFF7F2FF03BC00F0FA
:10029000E5FA00000948804709480047FEE7FEE705
:1002A000FEE7FEE7FEE7FEE7FEE7FEE7FEE7FEE726
:1002B00004480549054A064B70470000952F000881
:1002C000D9010008580300205809002058050020D3
:1002D0005805002053EA020C00F069802DE9F04B2C
:1002E0004FF00006002B1FBFB3FA83F503FA05F4A5
:1002F00024FA05F65E4012BF1643B2FA82F502FAFE
:1003000005F4C5F120051EBF22FA05FC44EA0C04E1
:10031000203556EA044C4FEA144418BF641C4FF0D1
:1003200000084FF00009904271EB030C39D300290B
:1003300019BFB1FA81F701FA07F6B0FA80F700FAAF
:1003400007F6C7F120071EBF20FA07FC46EA0C0695
:100350002037B6FBF4FCA7EB0507103F07F01F0B97
:10036000CBF120060CFA0BFB2CFA06F644BFB34681
:100370000026202FA4BF5E464FF0000B5BEA060C60
:1003800008BF4FF0010B19EB0B09ABFB027C48EBEC
:100390000608C01B06FB02CC0BFB03CC71EB0C0167
:1003A000C1E70B46024641464846BDE8F08B13B50F
:1003B0004FF000004FF00001AFF30080BDE81C409B
:1003C000704700000FB41CB5074B06AA7B44694672
:1003D0000090059800F015F90020694600F024F916
:1003E0001CBC5DF814FB0000590200002DE9F0412F
:1003F0000E460446002020622046E168884730B35C
:10040000252805D0D4E901219047206A401CF2E755
:10041000E168204600278847050018D0A5F1410073
:10042000192802D820354FF4006732462946204665
:100430002760FFF70BFF40B1012804D0F61D26F01E
:1004400007060836D8E7361DD6E72846DAE7206AD9
:10045000BDE8F0812DE9F0410646002410687529B9
:10046000314616A510D0AFF30080002802DA4042D2
:1004700013A507E031688A0701D512A502E04907F4
:1004800004D511A5012401E0AFF3008000210A2268
:1004900006F1240709E0B0FBF2FCB0FBF2F302FB2B
:1004A0001C00303078541846491C0028F3D12346EC
:1004B0002A463046BDE8F04100F044B80000000094
:1004C0002D0000002B0000002000000070B5064643
:1004D00000F034F80468054630460A22002100F096
:1004E000A8F82C6070BD4FF0000200B5134694468A
:1004F0009646203922BFA0E80C50A0E80C50B1F17C
:100500002001BFF4F7AF090728BFA0E80C5048BF8F
:100510000CC05DF804EB890028BF40F8042B08BF2D
:10052000704748BF20F8022B11F0804F18BF00F829
:10053000012B7047704770477047000000487047B4
:10054000F80200202DE9F0470D46994692460446F0
:1005500000F124080168880604D5E06921F0100143
:10056000216000E00120A84201DD471B00E00027D8
:10057000A1697A1902EB0900081AA0612078C00667
:1005800002D42046AFF30080002608E0D4E9012120
:100590001AF806009047206A401C761C20624E45DF
:1005A000F4DB2078C0060AD52046AFF3008006E0D1
:1005B000D4E9012130209047206A401C2062381E77
:1005C000A7F10107F4DC07E0D4E9012118F80500E0
:1005D0009047206A401C2062281EA5F10105F3DC2B
:1005E0002046AFF300802078000602D50220BDE847
:1005F000F0870120FBE7000001694A1C02610878CE
:10060000704700B58FB0CDE9013100210591054952
:100610007944CDE9031011466846FFF7E7FE0FB0B5
:1006200000BD0000E5FFFFFF0A6802F8010B0A6049
:1006300070472DE9F04791460F4680460446002654
:1006400014F8015B2DB100F031F80068405DC0077F
:10065000F6D12B2D02D02D2D18D0641E4A463946D6
:10066000204600F02BF827B13968A14201D1C7F824
:1006700000804FF0020471050BD54042002803DDD5
:10068000FFF75CFF0460A007BDE8F08746F48066D2
:10069000E4E70028F8DAFFF751FF04606FF000404C
:1006A000F2E7000000487047F802002010B500F0A3
:1006B00079F8001D10BD00BFD93B00002DE9F05FA7
:1006C000824615468B4600270AF10104B946007898
:1006D000302801D09DB113E014F8010B01277828D0
:1006E00003D0582801D045B10AE00DB1102D07D133
:1006F000002714F8010B102502E0082500E00A2568
:100700000026B0460EE005FB080005FB06F10127B8
:100710001FFA80F801EB1046B6F5803F00D3B946CA
:1007200014F8010B294600F041F80028EBDABBF180
:10073000000F05D00FB1641E00E05446CBF8004016
:10074000B9F1000F06D0FFF7F9FE02210160C81EC3
:10075000BDE8F09F48EA0640FAE77546FFF7A2FFBA
:10076000AE4605006946534620F00700854618B09E
:1007700020B5FFF79DFDBDE820404FF000064FF08B
:1007800000074FF000084FF0000B21F00701AC46C6
:10079000ACE8C009ACE8C009ACE8C009ACE8C009E5
:1007A0008D46704700487047180300203A2800D251
:1007B000303820F02002412A01D3A2F137008842CC
:1007C00001D34FF0FF30704710B50446AFF30080FF
:1007D0002046BDE81040FFF756BD00004FF0013C39
:1007E00050F8042B51F8043B9A4221D1A2EB0C03A0
:1007F000934313EACC1317D150F8042B51F8043B60
:100800009A4215D1A2EB0C03934313EACC130BD1FC
:1008100050F8042B51F8043B9A4209D1A2EB0C0387
:10082000934313EACC13DBD04FF00000704700BFB6
:10083000D01A01BAB1FA81F101F0180122FA01F0DF
:10084000CB40C1F12001DBB2C0B2C01A2CFA01F3D7
:10085000D11A914311EAC311E6D17047014918201A
:10086000ABBEFEE7260002007047FEE7704772B697
:10087000FEE710B590F8253000210122022B03D0AD
:100880000421C163012122E003681C6824F00E04E6
:100890001C60836C1C6824F480741C6003681C68F2
:1008A00024F001041C6090F84430046C03F01F0332
:1008B00002FA03F36360D0E913345C60436D33B133
:1008C0001C6824F480741C60D0E916345C6080F8E5
:1008D0002520002280F82420084610BD70B590F82D
:1008E0002520002401212346022A07D00422C263C6
:1008F00080F8251080F82430012429E0026815686A
:1009000025F00E0515600268156825F001051560D3
:10091000826C156825F48075156090F84420056C8C
:1009200002F01F0201FA02F26A60D0E91325556055
:10093000426D32B1156825F480751560D0E9162531
:10094000556080F8251080F82430816B01B188470C
:10095000204670BD70B5044600F038F90546601CAD
:1009600002D004484068044400F030F9401BA04223
:10097000FAD370BD4C0000202DE9F04FDFF8209233
:10098000002301260324A9F1040B85B00F2709F1E8
:10099000040AABF1040EFAE006FA03F52A407CD013
:1009A00091F804C00CF0030CBCF1010F02D0BCF1B3
:1009B000020F26D1D0F808C0CDF800C04FEA430C92
:1009C00004FA0CF8CDF810C0DDF800C02CEA080CD1
:1009D000CDF800C0D1F80C80DDF810C008FA0CF892
:1009E000DDF800C048EA0C08C0F80880D0F804C060
:1009F0002CEA050C0D79C5F300159D4045EA0C0560
:100A000045600D79ED43AD070ED0C5684FEA430848
:100A100004FA08FC25EA0C05D1F808C00CFA08FC19
:100A20004CEA050CC0F80CC00D7905F00305022D49
:100A300016D1DD0800EB850CCDF808C0DCF820806D
:100A40005D074FEAD56C07FA0CF528EA05080D6931
:100A500005FA0CF5DDF808C045EA0805CCF8205089
:100A600005684FEA430CCDF808C004FA0CFC25EAEF
:100A70000C0591F804C00CF00308DDF808C008FA72
:100A80000CF848EA0508C0F800804D6815F4403FAE
:100A90007CD0444DD5F860C000E077E04CF0010C0C
:100AA000C5F860C02D6E23F0030C05F0010500951C
:100AB0003D4D65440295AD684FEA837C4FEA1C7852
:100AC00007FA08FC25EA0C05B0F1904F06D0DFF8D4
:100AD000DCC0604505D14FF0010C20E04FF0000C68
:100AE0001DE0DFF8CCC0604502D14FF0020C16E0EB
:100AF000DFF8C0C0604502D14FF0030C0FE0DFF813
:100B0000B8C0604502D14FF0040C08E0DFF8ACC07B
:100B1000604502D14FF0050C01E04FF0060C0CFAD5
:100B200008FC4CEA050C029DC5F808C0D9F8005035
:100B3000CC46D1F8048095435FEAC82800D5154318
:100B4000CCF80050DAF80050D446D1F80480954330
:100B50005FEA882800D51543CCF80050DBF8005038
:100B6000DC46D1F8048095435FEA883800D5154308
:100B7000CCF80050DEF80050F446D1F804809543DC
:100B80005FEAC83800D51543CCF800505B1C0A68F2
:100B900032FA03F57FF400AF05B0BDE8F08F000036
:100BA0000804014000100240000001400004004819
:100BB00000080048000C00480010004800140048DD
:100BC0000AB1816170478162704700000148806806
:100BD000704700004C00002090F84120202A24D1CA
:100BE00090F84020012A20D0012280F840202422C1
:100BF00080F841200268136823F001031360026843
:100C0000136823F480531360026813680B43136066
:100C100001680A6842F001020A60202180F8411050
:100C2000002180F84010084670470220704790F875
:100C30004120202A22D190F84020012A1ED00122F2
:100C400080F84020242280F841200268136823F0B5
:100C5000010313600268136823F4706343EA0121FF
:100C6000116001680A6842F001020A60202180F8E0
:100C70004110002180F8401008467047022070475C
:100C800070B5040004D094F84100002510B106E0CE
:100C9000012070BD84F84050204600F04FF8242019
:100CA00084F841002068016821F00101016060685A
:100CB000216820F0706008612068816821F400419B
:100CC0008160E0680128A06830D040F404402168C9
:100CD0008860E0680228206841682AD021F4006119
:100CE000416020684168144A114341602068C1682E
:100CF00021F40041C160D4E904010843A16940EA3C
:100D000001202168C860D4E9070108432168086010
:100D10002068016841F0010101606564202084F8C9
:100D20004100256384F84250002070BD40F400402B
:100D3000CDE741F40061D3E700800002F0B597B041
:100D40000446142111A8FFF7CEFB44216846FFF7A3
:100D5000CAFB20492068884239D1402000250090F4
:100D60000695684600F034F908B1FFF780FD1A4C8B
:100D7000E06C40F00100E064E06C00F001001690CF
:100D8000E06C40F00200E064E06C122600F002002B
:100D9000169004274FF40040CDE91265CDE91457B1
:100DA000119011A9B006FFF7E7FD6015CDE91265B6
:100DB000CDE91457119011A90848FFF7DDFDA06D8A
:100DC00040F40010A065A06D00F40010169017B05C
:100DD000F0BD000000540040001002400004004834
:100DE0000248816842681144816070474C000020CD
:100DF00010B50024032000F073F80F2000F008F86D
:100E000008B1012401E000F025F8204610BD0000E3
:100E100070B50E4E05460024706898B14FF47A7193
:100E2000B1FBF0F00A490968B1FBF0F000F018FEE0
:100E300040B9102D06D200222946501E00F030F88D
:100E4000356000E00124204670BD00004C00002009
:100E5000580000200A4882B0016E41F0010101668D
:100E6000016E01F001010091816D41F080518165B9
:100E7000806D00F08050009002B000F0A1B800003A
:100E800000100240002809DB00F01F020121914000
:100E90004009800000F1E020C0F800117047000018
:100EA000F0B40E4B1B680C46C3F30223C3F10705D5
:100EB000042D00D90425191D072901D2002300E0C3
:100EC000DB1E012606FA05F1491E214099409E408D
:100ED000761E16403143F0BC03F02FB80CED00E055
:100EE000064900F0070208684FF6FF03184040EA81
:100EF0000220034A10430860704700000CED00E038
:100F00000000FA052B492C4B0A6832214A432B4931
:100F100040B1B0F5007F086829D020F4C06040F4EB
:100F200080602CE00868C0F34120022804D051F80A
:100F3000800F20F4807022E0D1F8800020F48070CF
:100F4000C1F88000086820F4C06040F400700860B8
:100F5000B2FBF3F0401C00E0401E4A69520501D587
:100F60000028F9D1486940050AD503207047C0F32D
:100F70004120022806D051F8800F40F480700860AC
:100F800000207047D1F8800040F48070C1F88000E4
:100F9000086820F4C06040F400700860B2FBF3F011
:100FA000401C00E0401E4A695205DBD50028F9D1FB
:100FB000D8E700005800002040420F0000700040B9
:100FC0000248816841F480418160704700700040B0
:100FD0002DE9F8430446006800269D4D00035ED5C8
:100FE000A86D0027C00008D4A86D40F08050A86507
:100FF000A86D012700F080500090DFF85892D9F8D2
:10100000001041F48071C9F80010FFF7DFFD804641
:1010100006E000BFFFF7DAFDA0EB080002282BD89E
:10102000D9F80000C005F5D5D5F8900010F440704F
:1010300014D0216C814211D0D5F89000D5F89010D1
:1010400020F4407041F48031C5F89010D5F890102C
:1010500021F48031C5F89010C5F89000C00711D078
:10106000FFF7B4FD804641F2883907E0FFF7AEFD97
:10107000A0EB0801494501D903260BE0D5F8900003
:101080008007F3D5D5F89000216C20F44070084318
:10109000C5F890001FB1A86D20F08050A865207899
:1010A000C00707D0D5F88800616820F00300084326
:1010B000C5F888002078800707D5D5F88800A16892
:1010C00020F00C000843C5F888002078400707D5B9
:1010D000D5F88800E16820F030000843C5F88800A2
:1010E0002078000707D5D5F88800216920F0C000D6
:1010F0000843C5F888002078800607D5D5F8880011
:10110000616920F440600843C5F8880020784006F3
:1011100007D5D5F88800A16920F440500843C5F8E8
:1011200088002078000607D5D5F88800E16920F40A
:1011300040400843C5F888002088C00507D5D5F889
:101140008800216A20F440300843C5F888002088D0
:10115000800507D5D5F88800616A20F4402008434F
:10116000C5F88800208840050FD5D5F88800A16A09
:1011700020F440100843C5F88800A06AB0F5801F2D
:1011800003D1E86840F48010E860208800050FD59E
:10119000D5F88800E16A20F440000843C5F88800CB
:1011A000E06AB0F5800F03D1E86840F48010E86091
:1011B0002088C0040FD5D5F88800216B20F040703E
:1011C0000843C5F88800206BB0F1807F03D1E86840
:1011D00040F48010E86020884FF0006180040ED554
:1011E000D5F88800626B20F040601043C5F8880095
:1011F000606B884203D1E86840F48010E860208882
:1012000040040ED5D5F88800A26B20F04060104352
:10121000C5F88800A06B884203D1E86840F48010CC
:10122000E860208800040FD5D5F88800E16B20F035
:1012300040500843C5F88800E06BB0F1805F03D1EF
:10124000E86840F48030E8603046BDE8F88300008C
:1012500000100240007000402DE9F0470E460500E6
:101260004FF0000725D0DFF8AC81D8F8000000F07F
:101270000F00B0420CD2D8F8001021F00F0131431A
:10128000C8F80010D8F8000000F00F00B04210D1EC
:101290002968614CC80741F2883A5AD06868DFF87B
:1012A0007C91032808D0022820682DD04005002812
:1012B0002CDB0120BDE8F08720688001F9D5E068CB
:1012C00000F00302E068C0F30310401C032A19D0A9
:1012D000534A00BFB2FBF0F0E268C2F3062250436B
:1012E000E268C2F34162521C5200B0FBF2F0484582
:1012F00017D9A06810F0F00F0CD0880711D5A86896
:1013000040B10EE0474AE5E78003D0E700F0B6F8C9
:10131000484506D9A06820F0F00040F08000A060A9
:101320008027A068696820F003000843A060FFF7E9
:101330004DFC814606E000BFFFF748FCA0EB090129
:1013400051453AD8A068696800F00C00B0EB810FF5
:10135000F2D12868810714D5400703D5A06840F46E
:10136000E060A0602878000705D5A06820F46050F0
:1013700040F4E060A060A068A96820F0F000084395
:1013800004E0802F03D1A06820F0F000A060D8F81E
:101390000010404601F00F01B14216D9016821F05A
:1013A0000F0131430160FFF711FC074607E000BF62
:1013B000FFF70CFCC11B514501D903207AE7D8F88F
:1013C000000000F00F00B042F2D12878400705D5A8
:1013D000A068E96820F4E0600843A060287800076E
:1013E00006D5A068296920F4605040EAC100A060D9
:1013F00000F044F8A1680C4AC1F30311515C01F0FC
:101400001F01C8400949086009480068BDE8F04765
:10141000FFF7FEBC002002400010024000B4C404EC
:101420000024F40000127A00EE4200085800002068
:101430004C0000200548064900688968054AC1F348
:101440000221515C01F01F01C84070475800002084
:1014500000100240FE4200080548064900688968FD
:10146000054AC1F3C221515C01F01F01C840704719
:101470005800002000100240FE420008184910B534
:101480008868C0F381021748012A0BD08A6843108C
:10149000C2F38102022A06D08A68C2F38102032ABB
:1014A00003D0002010BD184610BDCA6802F0030426
:1014B000CA68C2F30312521C032C02D0B0FBF2F034
:1014C00001E0B3FBF2F0CA68C968C2F306225043D8
:1014D000C1F34161491C4900B0FBF1F010BD0000AF
:1014E000001002400024F4002DE9F84304007AD0F3
:1014F0002078F84DC00747D0A868E96800F00C00D4
:1015000001F003010C2802D0082817D001E00329BC
:1015100014D06068B0F5803F17D0B0F5A02F2868D0
:1015200017D020F480302860286820F480202860BC
:101530006068E0B1FFF74AFB064614E028688003C4
:1015400022D560680028D2D01EE0286840F48030A0
:10155000EDE740F480202860F7E700BFFFF736FB97
:10156000801B642870D828688003F7D50CE0FFF74B
:101570002DFB064605E000BFFFF728FB801B642813
:10158000F0D828688003F7D4207880074CD5A86865
:10159000E96800F00C0001F003010C2802D00428D7
:1015A0000DD001E002290AD0E068002828682BD07D
:1015B00040F480702860FFF709FB064619E02868B0
:1015C000400502D5E068002891D06868217C20F0B1
:1015D000FE4040EA01606860BF480068FFF718FC01
:1015E000002800D120E072E1FFF7F0FA801B02280A
:1015F000B8D828684005F7D56868217C20F0FE40FF
:1016000040EA016068600FE020F480702860FFF716
:10161000DDFA064605E000BFFFF7D8FA801B022876
:10162000A0D828684005F7D42078000729D560693C
:101630000028D5F8940013D040F00100C5F89400BC
:10164000FFF7C4FA064606E090E000BFFFF7BEFAD7
:10165000801B022886D8D5F894008007F6D510E0C4
:1016600020F00100C5F89400FFF7B0FA064604E048
:10167000FFF7ACFA801B022878D8D5F894008007D1
:10168000F6D42078400761D5A86D0026C00008D4A4
:10169000A86D40F08050A865A86D012600F080502C
:1016A00000908E480168C90511D40168804641F454
:1016B00080710160FFF78AFA074604E0FFF786FAB7
:1016C000C01B022852D8D8F80000C005F6D5A06883
:1016D000012815D00528D5F8900016D020F001007B
:1016E000C5F89000D5F8900020F00400C5F89000EF
:1016F000A06841F28838B8B1FFF768FA07460EE0F3
:10170000D5F8900040F00100F0E740F00400C5F883
:101710009000F5E7FFF75AFAC11B414526D8D5F8E6
:1017200090008007F6D50CE0FFF750FA074604E07A
:10173000FFF74CFAC11B414518D8D5F89000800737
:10174000F6D41EB1A86D20F08050A86520788006E0
:1017500029D5A0690028D5F8980013D040F00100E1
:10176000C5F89800FFF732FA064606E075E000BFBC
:10177000FFF72CFA801B02286FD8D5F89800800755
:10178000F6D510E020F00100C5F89800FFF71EFA2A
:10179000064604E0FFF71AFA801B02285DD8D5F848
:1017A00098008007F6D4E069F0B3A968C1F381011D
:1017B00003295DD00228286820F08070286003D0BB
:1017C000FFF704FA04464BE0FFF700FA064604E090
:1017D000FFF7FCF9801B02283FD828688001F7D466
:1017E000F4E908016FF00F0202EB01110843218AAE
:1017F0005204490802EB4151A26841EA0221084320
:10180000217D4FF07E42490802EB41610843217B74
:1018100040EAC160E968324A11400843E86028683C
:1018200040F08070286000E05EE0E86840F0807082
:10183000E860FFF7CBF9044605E000BFFFF7C6F903
:10184000001B022809D828688001F7D54CE000BFAA
:10185000FFF7BCF9001B022802D90320BDE8F8837A
:1018600028688001F4D4E8681E490840E8603BE03D
:101870000128F3D0E868226A00F00301914226D1E2
:10188000616A00F0F0020901103991421FD1A26A89
:1018900000F4FE41B1EB022F19D194F82C2000F096
:1018A0007841B1EBC26F12D1218E00F4C002490819
:1018B0004905A1F50011914209D194F8341000F0C6
:1018C000C06049084906A1F1007181420CD0012095
:1018D000C4E70000001002404C00002000700040EF
:1018E0000C809F01FCFFEEFE0020B7E770B50400FE
:1018F00009D0606A002540B125616561A56294F850
:101900005D0040B10CE0012070BD6068B0F5827FE1
:10191000F4D0E561F2E784F85C50204600F05CF812
:10192000022084F85D002068016821F04001016018
:10193000E1684FF4E062914201D9002001E04FF4E8
:101940008050B1F5706F02D0914200D0A562A1889D
:10195000228901F4827102F404421143227C02F0D4
:1019600002021143227D02F001021143228B02F494
:1019700000721143227F02F03802114394F82020B4
:1019800002F080021143228D02F4005211432268BA
:101990001160A169042202EA114194F8242000F4A4
:1019A000805002F01002114394F8342002F0080233
:1019B0001143A28902F4706211430143206841601F
:1019C0002068C16921F40061C1612566012084F8A5
:1019D0005D00002070BD000070B586B00446142183
:1019E0006846FEF780FD1B492068884230D11A48BE
:1019F000816D41F480418165816D01F480410591E3
:101A0000C16C41F02001C164C16C01F0200105915D
:101A1000C16C41F00101C164C06C02250024009535
:101A2000CDE9015400F001000526CDE904606946C6
:101A300003940A48FEF7A0FF4FF440600090CDE900
:101A40000154CDE9034669464FF09040FEF794FFFC
:101A500006B070BD0038004000100240001400487D
:101A600010B5401EB0F1807F01D3012010BD4FF0B2
:101A7000E02460610F21601702F05FFA0020A0618E
:101A800007202061002010BD7047704770477047E5
:101A900070477047F0B590F83C20012A3AD00125F4
:101AA00080F83C50022280F83D2003685A689C6808
:101AB000194E1A4FB34201D0BB4204D122F4700C2C
:101AC0004A6842EA0C02DFF858C002EA0C02D1F878
:101AD00000C04CEA020CC3F804C00268B2420DD048
:101AE000B2F1804F0AD00F4B9A4207D00E4B9A4268
:101AF00004D0BA4202D00D4B9A4204D1896824F036
:101B000080031943916080F83D50002180F83C101B
:101B10000846F0BD0220F0BD002C01400034014019
:101B20008FFFFFFD0004004000080040004001401E
:101B3000704710B5040003D094F83D0010B107E0E1
:101B4000012010BD002084F83C00204600F022F85F
:101B5000022084F83D00211D206801F02FFA0120A9
:101B600084F8480084F83E0084F83F0084F8400080
:101B700084F8410084F8420084F8430084F844006B
:101B800084F8450084F8460084F8470084F83D0056
:101B9000002010BD08B51A4A01681A4891420ED1BA
:101BA000016E41F400610166006E002200F40060E5
:101BB000009011461920FFF773F919201CE0124A12
:101BC000914208D1816D41F002018165806D00F084
:101BD0000200009008BD0D4A9142FBD1816D41F099
:101BE00004018165806D002200F004000090114620
:101BF0001E20FFF755F91E20BDE80840FFF742B947
:101C0000002C014000100240000400400008004089
:101C100090F83D10012901D001207047022180F881
:101C20003D100168CA6842F00102CA6000681049AC
:101C300088420ED0B0F1804F0BD00E49884208D0B8
:101C40000D49884205D00D49884202D00C4988428E
:101C500007D181680B4A1140062906D0B1F5803FB3
:101C600003D0016841F001010160002070470000CD
:101C7000002C0140000400400008004000340140F6
:101C8000004001400700010070B5044690F83C0098
:101C90000025012814D0012684F83C60022084F835
:101CA0003D0022689068364B184020F47F409060D9
:101CB000086870282ED010DC10F00F0F03D021E040
:101CC0004FF0020070BD4FEA2012072A1AD2DFE857
:101CD00002F0525252524A3840002A4BC21A9842DD
:101CE00049D009DCB0F5805F0DD0B0F5005F1CD0A5
:101CF000B0F1101F06D13EE0102A3CD0202A3AD085
:101D0000502A38D0012584F83D60002084F83C003A
:101D1000284670BDCB68D1E90121206801F0B9F9EE
:101D20002068816841F0770109E0CB68D1E90121A1
:101D3000206801F0AEF92068816841F4804181603B
:101D4000E1E7CA684968206801F04EFB502120682D
:101D500006E0CA684968206801F057FB60212068E6
:101D600001F0A2F9CFE7CA684968206801F03CFB9E
:101D700040212068F4E7226801461046F0E70000A1
:101D800088FFCEFF2000100070472DE9F041044687
:101D90000068C66805694FF00007A90713D5B107A9
:101DA00011D5F91E01610120207720688069800724
:101DB000204602D0FFF7E8FF04E000F0F1F82046EB
:101DC00000F0C4F92777680716D5700714D5216885
:101DD0006FF004000861022020772068806910F409
:101DE000407F204602D0FFF7CFFF04E000F0D8F894
:101DF000204600F0ABF92777280715D5300713D513
:101E000021686FF008000861042020772068C0690D
:101E10008007204602D0FFF7B7FF04E000F0C0F8CB
:101E2000204600F093F92777E80616D5F00614D57A
:101E300021686FF010000861082020772068C069D1
:101E400010F4407F204602D0FFF79EFF04E000F030
:101E5000A7F8204600F07AF92777E80708D0F007BE
:101E600006D021686FF001000861204600F0EEF90D
:101E7000280601D4A80408D5300606D521686FF4D9
:101E8000025008612046FFF700FEE80508D530063D
:101E900006D521686FF4807008612046FFF7F4FDD5
:101EA000680608D5700606D521686FF04000086105
:101EB000204600F0CCF9A80608D5B00606D5216862
:101EC0006FF0200008612046FFF7E0FDE80208D52A
:101ED000F00206D521686FF4801008612046FFF7F4
:101EE000D7FDA80208D5B00206D521686FF400100E
:101EF00008612046FFF7CBFD680208D5700206D5C1
:101F000021686FF4800008612046FFF7C2FD2802B7
:101F10000AD5300208D521686FF400000861204618
:101F2000BDE8F041FFF704BEBDE8F08170B586B0B2
:101F3000044614216846FEF7D6FA2068B0F1804FB7
:101F400028D11548C16C41F00101C164C16C01F098
:101F500001010591C16C41F00201C164C06C022510
:101F600000F002000590202000900024CDE90154EB
:101F70000126CDE9034669464FF09040FEF7FCFC90
:101F800068020090CDE90154CDE903466946034853
:101F9000FEF7F2FC06B070BD0010024000040048DD
:101FA000704770B5044690F83C0000260D460128A5
:101FB0000BD0012084F83C000C2A4AD007DC82B107
:101FC000042A20D0082A06D131E0022070BD102A50
:101FD00053D0142A63D00126002084F83C003046F8
:101FE00070BD206801F06AF82068816941F008013D
:101FF00081612068816921F0040181612068816923
:102000002A69114311E0206801F0A6F8206881696F
:1020100041F4006181612068816921F480618161FE
:10202000206881692A6941EA02218161D4E7206838
:1020300001F0DAF82068C16941F00801C161206847
:10204000C16921F00401C1612068C1692A69114395
:1020500011E0206801F010F92068C16941F40061C5
:10206000C1612068C16921F48061C1612068C169D2
:102070002A6941EA0221C161AEE7206801F044F912
:102080002068016D41F0080101652068016D21F0B3
:10209000040101652068016D2A69114311E020687F
:1020A00001F06AF92068016D41F400610165206862
:1020B000016D21F4806101652068016D2A6941EAA2
:1020C0000221016588E710B5040003D094F83D00B3
:1020D00010B107E0012010BD002084F83C0020462C
:1020E00000F022F8022084F83D00211D206800F055
:1020F00065FF012084F8480084F83E0084F83F0022
:1021000084F8400084F8410084F8420084F84300D9
:1021100084F8440084F8450084F8460084F84700B9
:1021200084F83D00002010BD08B50068B0F1804F74
:1021300008D10548816D41F001018165806D00F095
:102140000100009008BD0000001002407047000030
:1021500030B50446022269B1042912D0082917D0EB
:102160000C291CD0102921D094F84300012824D038
:10217000012030BD94F83E000128F9D184F83E20BA
:102180001DE094F83F000128F2D184F83F2016E0CA
:1021900094F840000128EBD184F840200FE094F837
:1021A00041000128E4D184F8412008E094F842007D
:1021B0000128DDD184F8422001E084F84320012287
:1021C000206800F059FF194B20681949194A9842B4
:1021D00009D0884207D0904205D0174DA84202D0BE
:1021E000164DA84203D1456C45F40045456420686E
:1021F00098420CD0B0F1804F09D0114B984206D0D4
:10220000104B984203D0884201D0904207D1816898
:102210000D4A1140062906D0B1F5803F03D0016870
:1022200041F001010160002030BD0000002C0140A0
:10223000003401400040014000440140004801409A
:10224000000400400008004007000100704770478C
:1022500090F88410012918D0012180F884102421DD
:10226000C0F8881001680A680B6823F001030B604E
:1022700022F0005100224266036819602021C0F854
:10228000881080F8842010467047022070477047FD
:10229000704770B5044690F8840001281DD00120D5
:1022A00084F884002420C4F8880020680568026847
:1022B00022F0010202602068826822F060620A4314
:1022C0008260204601F0B4F8206805602020C4F840
:1022D0008800002084F8840070BD022070BD70B5B5
:1022E000044690F8840001281DD0012084F8840061
:1022F0002420C4F8880020680568026822F00102E2
:1023000002602068826822F060420A4382602046B0
:1023100001F08EF8206805602020C4F888000020B5
:1023200084F8840070BD022070BD7047704770470C
:102330002DE9F04103680446D86919689A6840F6A7
:102340000F0528424FF000054FF002060AD187061C
:102350007ED501F0200702F0805C57EA0C0777D0A9
:10236000616F42E1B64FDFF8DCC2174001EA0C0CA6
:1023700057EA0C0C6CD05FEAC07C0CD05FEAC15C01
:1023800009D54FF0010CC3F820C0D4F8903043F0C9
:102390000103C4F89030830709D5D30707D0236819
:1023A0001E62D4F8903043F00403C4F89030430721
:1023B0000AD5D30708D0266804233362D4F89030B6
:1023C00043F00203C4F8903003070CD501F020035A
:1023D0003B4308D0266808233362D4F8903043F09A
:1023E0000803C4F8903003050BD54B0109D52668C6
:1023F0004FF400633362D4F8903043F02003C4F804
:102400009030D4F89030002B3DD0800609D501F0F3
:10241000200002F08051084303D0616F09B12046CB
:102420008847D4F8900021688968490602D410F0E2
:10243000280F2AD0204601F0E1F820688068400685
:102440001ED52068083050E8001F21F0400100E050
:1024500021E040E80012002AF3D1D4F8800078B1DE
:1024600079498163D4F88000FEF738FA00280AD051
:10247000D4F88000816B00E02046BDE8F0410847B9
:102480002046FFF754FFBDE8F0812046FFF74FFFDD
:10249000C4F89050F7E7D4F86CC02027BCF1010FC6
:1024A0007ED15FEAC06C7BD55FEAC16C78D5102025
:1024B000186220688068400651D5D4F880100A68F8
:1024C00050680004000C3ED0B4F85C3083423AD926
:1024D000A4F85E000868006880062CD4216851E8E2
:1024E000000F20F4807041E80002002AF6D1206835
:1024F000083050E8001F21F0010140E80012002AD6
:10250000F5D12068083050E8001F21F0400140E874
:102510000012002AF5D1C4F88C70E566216851E8F4
:10252000000F20F0100041E80002002AF6D1D4F894
:102530008000FEF79EF92667B4F85C00B4F85E10E0
:10254000401A81B207E0B4F85C1081429BD1106858
:10255000800698D526672046FFF799FE93E7B4F8E2
:102560005C00B4F85E10401A81B2B4F85E00002836
:1025700089D0002987D0226852E8000F20F490709B
:1025800042E80003002BF6D12D4BDB4320680830D6
:1025900050E8002F1A4040E8002CBCF1000F00E08A
:1025A0000EE0F3D1C4F88C70E5666567206850E8EA
:1025B000002F22F0100240E80023002BF6D1C9E7DB
:1025C000C60209D5560207D54FF48010186220467E
:1025D000BDE8F041FFF7AABE03060AD501F080036B
:1025E00002F40002134304D0A16F00297FF444AF2A
:1025F00049E7420611D54A060FD52046016851E841
:10260000002F22F0400241E80023002BF6D1C0F851
:102610008870856700F0A9FA35E7020206D54A00FE
:1026200004D52046BDE8F041FFF77FBEC00195D537
:10263000002993DA2046BDE8F041FFF729BE0000EB
:102640000100001020010004E935000810B5040065
:1026500003D0D4F8880010B107E0012010BD00209D
:1026600084F88400204600F027F82420C4F888006D
:102670002068016821F001010160A06A10B12046C4
:1026800000F0F8FE204601F04BFA0128E6D0206861
:10269000416821F4904141602068816821F02A015D
:1026A00081602068016841F0010101602046BDE8B9
:1026B000104000F043BF000010B598B0044614214C
:1026C00011A8FDF710FF44216846FDF70CFF1A49D9
:1026D000206888422ED1002420200594009068466E
:1026E000FEF776FC08B1FEF7C2F81448C16D41F060
:1026F0000101C165C16D01F001011691C16C41F08C
:102700000101C164C06C11AA00F0010016900C20F8
:10271000022182E81300CDE9144011A94FF0904046
:10272000FEF72AF9002211465B20FEF7B9FB5B2079
:10273000FEF7A8FB18B010BD00800040001002405A
:1027400030B4D0F88C30202B02D0022030BC70473F
:10275000A9B1A2B10023C3660A4C0368A3420BD0FF
:102760005B681B0208D5046854E8003F43F08063AF
:1027700044E80035002DF6D130BC01F00BBB012040
:10278000E4E70000008000402DE9FC470068C349F1
:10279000884274D1C24D012700262878C14C4FF0E1
:1027A00002084FF0090903280BD008280BD0A9789C
:1027B000052918D0062916D069896054491C6981F9
:1027C00021E0EF700DE0B8A16423D1E90001CDE96B
:1027D000000107226946B64800F070F96889401E7A
:1027E00068812E70C9E0AE49A0F13002092A09794A
:1027F00000D811B120280DD00DE0A94AA9891532C1
:102800005054491CA9810A230122A549A84800F077
:1028100055F924E031B1092A01D8012910D00D2839
:1028200015D0AAE09E490A2302221031A04800F0E8
:1028300045F99B481530FDF749FEE8802F710EE001
:10284000974AE9891A325054491CE981DBE701298A
:1028500008D193481A30FDF739FE28812E71287867
:102860000D287DD18E491E2303221231904800F09D
:1028700025F920786C2803D0632852D06DE00AE156
:10288000607865286BD1A078642868D1E0784F28FB
:1028900002D062281FD062E020794E2802D046285C
:1028A00009D05CE060790D2859D17D4964230A2262
:1028B0006F7042310BE06079462850D1A0790D2825
:1028C0004DD1774964230B2285F801803731784850
:1028D00000F0F4F841E020796C2802D072280ED084
:1028E0003DE0607969283AD1A0796E2837D1E07946
:1028F0006B2834D1207A0D2831D103200FE0607984
:1029000065282CD1A079612829D1E079742826D1B5
:10291000207A682823D1607A0D2820D1042068709D
:1029200024E060786C281AD1A078652817D1E07867
:10293000612814D12079722811D160790D280ED127
:102940005CA06423D0E90010CDE90010082269469C
:10295000574800F0B3F80A206870207818B100E0FA
:102960000BE0687880B168780A2806D04C49322399
:102970000A221F314E4800F0A1F820786C280DD0B3
:1029800018B36878B0B368E0454932230E22293184
:10299000474800F093F885F80190E7E760786528EC
:1029A000EFD1A0786428ECD1E0786328E9D12079D0
:1029B0007428E6D160796C28E3D1A0792028E0D191
:1029C000E079622802D04F2827D044E0207A6C2892
:1029D00002D072280FD03EE0607A69283BD1A07AFD
:1029E0006E2838D1E07A6B2835D1207B202832D16F
:1029F000052010E041E0607A65282CD1A07A61289A
:102A000029D1E07A742826D1207B682823D1607BE5
:102A1000202820D1062068701FE0207A4E2802D09E
:102A2000462809D017E0607A0D2814D11C49642388
:102A30000A226F7042310BE0607A46280BD1A07AEF
:102A40000D2808D1164964230B2285F801803731FF
:102A5000174800F033F8687838B1A8706E8100200C
:102A60002654401C1E28FBDB6E7002B00122BDE81C
:102A7000F0470B490E48FFF763BE28780D28F4D1C4
:102A8000074932230E222931094800F017F8484639
:102A900085F80190E1E7BDE8FC8700000080004078
:102AA000000000205C0000201B5B441B5B4B00000F
:102AB000D00000201B5B324A1B5B48002DE9F84325
:102AC0000446D0F88800984616460D46202802D0C5
:102AD0000220BDE8F883A5B19EB10020C4F89000A3
:102AE0002120C4F888001834FEF770F8A6878146C4
:102AF000E68754F8100C2027183CB0F5805F02D010
:102B000003E00120E5E7206910B12E46002510E022
:102B100000260EE08021204601F0C4F9C0B9DEB1E4
:102B200016F8010B21688862B4F85600401EA4F81C
:102B30005600B4F856004B464FF00002CDF8008026
:102B40000028E7D14FF04001204601F0ABF940B139
:102B5000C4F888700320BCE735F8020BC0F3080006
:102B6000E0E7C4F888700020B3E77047FEE7000094
:102B70000148FFF7DDBB0000D000002030B587B072
:102B800014216846FDF7AFFC1A48C16C41F00401FE
:102B9000C164C16C01F004010591C16C41F02001D8
:102BA000C164C16C01F020010591C16C41F00101CB
:102BB000C164C16C01F001010591C16C41F00201D9
:102BC000C164C06C0C4D00F002004FF4005405903D
:102BD000002221462846FDF7F3FF01200021009442
:102BE000CDE90101039169462846FDF7C5FE07B00E
:102BF00030BD00000010024000080048134810B526
:102C0000114901601249416000210122C0E902120C
:102C1000016141618161C1610162FEF731F808B172
:102C2000FDF725FE00210948FDF7D6FF08B1FDF7A5
:102C30001EFE00210548FDF7FAFF002803D0BDE87D
:102C40001040FDF714BE10BD005400407C00002071
:102C5000C285B240174810B5154901604FF4E13103
:102C60004160002181600C22C160C0E904128161D1
:102C7000016241628162FFF7E9FC08B1FDF7F7FDEF
:102C800000210C48FFF72BFB08B1FDF7F0FD0021F8
:102C90000848FFF7FEFA08B1FDF7E9FD0548FFF720
:102CA000D7FA002803D0BDE81040FDF7E0BD10BD05
:102CB00000800040D0000020124810B5104901608B
:102CC0004FF48271416000214FF4E062C0E90212CA
:102CD0004FF400720161C0E905121022C0E907211A
:102CE00007224162C0E90A12016308214163FEF72D
:102CF000FDFD002803D0BDE81040FDF7B8BD10BDB4
:102D0000003800406401002010B588B00024184845
:102D10000594069403940494009401941349029436
:102D20000160A921C0E9011440F2E731C0E90314B0
:102D300044618461FEF7FDFE08B1FDF798FD4FF494
:102D40008050039003A90A48FEF79EFF08B1FDF7E3
:102D50008EFD00940194694605480294FEF79AFEA0
:102D6000002801D0FDF783FD08B010BD002C014004
:102D7000C801002010B58AB00024079408941C21D3
:102D800068460994FDF7AFFB19484FF08041016098
:102D9000C021C0E9011440F2CF71C0E9031484617D
:102DA000FFF791F908B1FDF762FD079407A91048F4
:102DB0000994FEF76FFE08B1FDF759FD6020CDE9DB
:102DC000000402940022694609480494FFF7E9F8D8
:102DD00008B1FDF74CFD082269460548FFF7E1F808
:102DE00008B1FDF744FD0248FFF7A0F80AB010BD96
:102DF0001402002010B588B00024174800940194F4
:102E0000029403940494059412490694C0E90014B2
:102E10004FF6FF71C0E9024104618461FEF789FE4B
:102E200008B1FDF724FD4FF48050009069460A4830
:102E3000FEF72AFF08B1FDF71AFD049404A906481D
:102E40000694FEF727FE002801D0FDF710FD08B01C
:102E500010BD0000000400406002002010B588B0E2
:102E60000024174800940194029403940494059458
:102E7000124906940160C021C0E9011440F2CF71EB
:102E8000C0E903148461FEF754FE08B1FDF7EFFCBE
:102E90004FF48050009069460948FEF7F5FE08B1EE
:102EA000FDF7E5FC049404A905480694FEF7F2FD3D
:102EB000002801D0FDF7DBFC08B010BD0008004081
:102EC000AC020020FEE7FEE7704770472DE9F047AF
:102ED0000024124E4FF4FA7940F2CF7825464FF491
:102EE0007A774846FDF736FDE00712D03068456333
:102EF0003068C763641C092CF3DD306845633068B3
:102F0000C563BDE8F04764230A2205490548FFF779
:102F1000D5BD3168C1F83480EAE700001402002012
:102F20001F000020D0000020FDF75ABF00B593B06D
:102F300038216846FDF7D7FA14210EA8FDF7D3FA19
:102F40000020FDF7DFFF0220C10103914021049121
:102F50000421CDE9080100905521CDE90A10079020
:102F60000C900D906846FEF7BFFA08B172B6FEE706
:102F70000F200E9003200F900020109011901290BF
:102F800004210EA8FEF768F9002801D072B6FEE70A
:102F900013B000BD0248016841F470010160704740
:102FA00088ED00E00148FEF7F0BE0000C8010020F7
:102FB0000148FEF7EABE0000AC0200202DE9F04314
:102FC0000268264B264D274E274C4FF080499842E9
:102FD00007D0484505D0A84203D0B04201D0A04256
:102FE00003D122F070074A683A43204FDFF880C0CF
:102FF000DFF8808098420DD048450BD0A84209D018
:10300000B04207D0A04205D0B84203D0604501D0FD
:10301000404503D122F44075CA682A434D6922F025
:1030200080022A4302608A68C2620A688262984209
:1030300007D0A04205D0B84203D0604501D040453A
:1030400001D109690163012141610169C90703D007
:10305000016921F001010161BDE8F083002C01400C
:1030600000040040000800400034014000400140DE
:10307000004401400048014010B501F01F03012148
:10308000046A99408C430462016A9A4011430162C8
:1030900010BD10B5846842EA032224F47F440A4339
:1030A0002243826010BD00008268034B1A400A432D
:1030B00042F00701816070478FFFCFFF2DE9F04399
:1030C000056A026A22F001020262436882691C4CAE
:1030D00025F0020522400C6822F0030214438A689E
:1030E000194E2A43174D194FDFF864C0DFF864907A
:1030F000A84207D0B04205D0B84203D0604501D005
:10310000484506D122F00808CA6842EA080222F0BF
:103110000402A84207D0B04205D0B84203D06045AF
:1031200001D0484505D14D6923F440731D438B6997
:103130002B4343608461496841630262BDE8F083C8
:103140008FFFFEFF002C0140003401400040014091
:103150000044014000480140F0B5056A026A22F0CF
:103160001002026242688369194C1B4E23400C68AE
:1031700023F4407343EA042425F020038D6843EAD6
:103180000513144DA84201D0B04206D1CF6823F0F8
:10319000800343EA071323F04003A8420AD0B04259
:1031A00008D00E4DA84205D00D4DA84202D00D4DBD
:1031B000A84207D14D6922F4406242EA85028D6936
:1031C00042EA850242608461496881630362F0BD1E
:1031D000FF8FFFFE002C0140003401400040014001
:1031E0000044014000480140F0B5056A026A22F43B
:1031F000807202624368C269194C1B4E22400C68FF
:1032000022F00302144325F400728D6842EA05227D
:10321000144DA84201D0B04206D1CF6822F400621A
:1032200042EA072222F48062A8420AD0B04208D0C3
:103230000E4DA84205D00E4DA84202D00D4DA84219
:1032400007D14D6923F4405343EA05138D6943EADE
:1032500005134360C4614968C1630262F0BD0000A8
:103260008FFFFEFF002C0140003401400040014070
:103270000044014000480140F0B5056A026A22F4AA
:10328000805202624268C369194C1B4E23400C688D
:1032900023F4407343EA042425F400538D6843EA81
:1032A0000533144DA84201D0B04206D1CF6823F4B3
:1032B000004343EA073323F48043A8420AD0B042D4
:1032C00008D00E4DA84205D00D4DA84202D00D4D9C
:1032D000A84207D14D6922F4404242EA85128D6925
:1032E00042EA85124260C461496801640362F0BD2C
:1032F000FF8FFFFE002C01400034014000400140E0
:10330000004401400048014030B5056A026A22F4D9
:10331000803202624268036D114C23400C681C43EA
:1033200025F400330D8943EA05430E4DA8420BD026
:103330000D4DA84208D00D4DA84205D00C4DA84215
:1033400002D00C4DA84204D14D6922F4803242EAE9
:1033500005224260046549688164036230BD000053
:103360008FFFFEFF002C014000340140004001406F
:10337000004401400048014030B5046A026A22F46A
:10338000801202624268036D114D24F400142B4038
:103390000D6843EA05230D8944EA05540D4DA84202
:1033A0000BD00D4DA84208D00C4DA84205D00C4DB5
:1033B000A84202D00B4DA84204D14D6922F48022CC
:1033C00042EA8522426003654968C164046230BDF7
:1033D000FF8FFFFE002C01400034014000400140FF
:1033E000004401400048014010B5036A046A24F01B
:1033F00001040462846924F0F00444EA021423F016
:103400000A020A438461026210BD10B5036A046AAD
:1034100024F010040462846923F0A00324F47044AF
:1034200044EA023243EA01118261016210BD0000E8
:1034300030B5416EB9B1026891689268C1F34261DA
:103440000B4B520F9C5CE50003F10804A25CB5FB3A
:10345000F2F2A0F86A205A5C615CD200B2FBF1F192
:10346000A0F8681030BD0121A0F86A10F8E700004C
:10347000DE42000890F82810090706D501684A685E
:10348000836B22F400421A434A6090F82810C9075F
:1034900006D001684A68C36A22F400321A434A60BF
:1034A00090F82810890706D501684A68036B22F452
:1034B00080321A434A6090F82810490706D50168FF
:1034C0004A68436B22F480221A434A6090F828101D
:1034D000C90606D501688A68C36B22F480521A4374
:1034E0008A6090F82810890606D501688A68036CFE
:1034F00022F400521A438A6090F82810490611D528
:1035000001684A68436C22F480121A434A60416C95
:10351000B1F5801F06D101684A68836C22F4C002AD
:103520001A434A6090F82810090606D501684A68CF
:10353000C06C22F4002202434A6070472DE9F84330
:1035400000260446C0F89060FDF740FB80462068E6
:1035500000684FF0200500076FF07E4713D5434603
:10356000002229042046009700F09CFC58B12168F5
:1035700051E8000F20F0800041E80002002AF6D157
:10358000C4F8885021E020680068400722D54346EF
:1035900000224FF480012046009700F083FCC8B160
:1035A000216851E8000F20F4907041E80002002AE1
:1035B000F6D12068083050E8001F21F0010140E8F2
:1035C0000012002AF5D1C4F88C5084F884600320DE
:1035D000BDE8F883C4F88850C4F88C5044F86C6F88
:1035E000666026760020F3E710B5806A0021A0F817
:1035F0005E10A0F85610FEF79AFE10BD10B50268D6
:1036000052E8001F21F4907142E80013002BF6D11C
:103610000E4B0268083252E8001F194042E80014BD
:10362000002CF6D1C16E012908D1016851E8002FA4
:1036300022F0100241E80023002BF6D12021C0F82F
:103640008C100021C166416710BD0000FEFFFFEF36
:1036500010B5B0F86020D0F88C300168222B04D06F
:10366000886940F00800886110BD496A836D114087
:103670001980816D891C8165B0F85E10491EA0F823
:103680005E10B0F85E100029EED1026852E8001F0B
:1036900021F4907142E80013002BF6D10168083143
:1036A00051E8002F22F0010241E80023002BF5D160
:1036B0002021C0F88C10002141670167154B02687A
:1036C0009A420BD05268120208D5036853E8002FC3
:1036D00022F0806243E80024002CF6D1C26E012A59
:1036E00002D0FFF751F810BDC166026852E8001F12
:1036F00021F0100142E80013002BF6D10168CA69DD
:10370000D243D20601D410220A62B0F85C10FEF750
:10371000BEFD10BD008000402DE9F0470446B0F822
:1037200060600068C569D0F800A0D0F80890D4F8AF
:103730008C10222905D0816941F008018161BDE822
:10374000F087B4F868704FF0000844E02068406AE1
:10375000A16D30400880A06D801CA065B4F85E00AB
:10376000401EA4F85E002068C569690730D0E907EB
:103770000AD05FEACA5107D501210162D4F890004E
:1037800040F00100C4F89000A8070BD55FEAC970AB
:1037900008D0216802200862D4F8900040F00400AC
:1037A000C4F8900068070BD55FEAC97008D021689B
:1037B00004200862D4F8900040F00200C4F89000A1
:1037C000D4F8900020B12046FEF7B1FDC4F89080F7
:1037D000B4F85E0000B30FB1A806B7D4B4F85E0029
:1037E0000028ACD0B4F868108142A8D9206808300D
:1037F00050E8001F21F0805140E80012002AF5D166
:103800002A486067206850E8001F41F0200140E826
:103810000012002AF6D192E7216851E8000F20F447
:10382000807041E80002002AF6D1214A2068083061
:1038300050E8001F114040E80013002BF6D1202073
:10384000C4F88C00C4F874804046C4F87080194AEB
:10385000216891420BD04968090208D5226852E8D4
:10386000001F21F0806142E80013002BF6D1E16EC9
:10387000012903D02046FEF787FFAFE7E066216805
:1038800051E8000F20F0100041E80002002AF6D1B4
:103890002068C169C943C90601D410210162B4F886
:1038A0005C102046FEF7F3FC98E700005136000854
:1038B000FEFFFFEF0080004010B5B0F86020D0F8A8
:1038C0008C300168222B04D0886940F008008861A0
:1038D00010BD496A1140826D1170816D491C81656E
:1038E000B0F85E10491EA0F85E10B0F85E10002916
:1038F000EED1016851E8002F22F4907241E80023D4
:10390000002BF6D10168083151E8002F22F00102A6
:1039100041E80023002BF5D12021C0F88C100021B4
:1039200041670167154B02689A420BD05268120238
:1039300008D5036853E8002F22F0806243E8002492
:10394000002CF6D1C26E012A02D0FEF71DFF10BD79
:10395000C166026852E8001F21F0100142E800131E
:10396000002BF6D10168CA69D243D20601D41022D5
:103970000A62B0F85C10FEF78AFC10BD00800040BF
:103980002DE9F0470446B0F860600068C569D0F8DA
:1039900000A0D0F80890D4F88C10222905D08169B5
:1039A00041F008018161BDE8F087B4F868704FF01C
:1039B000000844E02068406AA16D30400870A06DA6
:1039C000401CA065B4F85E00401EA4F85E002068AC
:1039D000C569690730D0E9070AD05FEACA5107D53F
:1039E00001210162D4F8900040F00100C4F8900079
:1039F000A8070BD55FEAC97008D0216802200862C9
:103A0000D4F8900040F00400C4F8900068070BD58B
:103A10005FEAC97008D0216804200862D4F89000D9
:103A200040F00200C4F89000D4F8900020B1204685
:103A3000FEF77DFCC4F89080B4F85E0000B30FB1CF
:103A4000A806B7D4B4F85E000028ACD0B4F868106B
:103A50008142A8D92068083050E8001F21F0805129
:103A600040E80012002AF5D12A486067216851E831
:103A7000000F40F0200041E80002002AF6D192E752
:103A8000216851E8000F20F4807041E80002002A0C
:103A9000F6D1214A2068083050E8001F114040E864
:103AA0000013002BF6D12020C4F88C00C4F87480D9
:103AB0004046C4F87080194A216891420BD0496889
:103AC000090208D5226852E8001F21F0806142E80F
:103AD0000013002BF6D1E16E012903D02046FEF73A
:103AE00053FEAFE7E066206850E8001F21F01001A8
:103AF00040E80012002AF6D12068C169C943C9060E
:103B000001D410210162B4F85C102046FEF7BFFB1F
:103B100098E70000B9380008FEFFFFEF0080004082
:103B20002DE9F0410446016880682269E369104389
:103B3000626900251A431043DFF82CC20A688B4BD8
:103B40001A4002430A6020684168E26821F440514B
:103B5000114341602168A069614501D0226A104388
:103B60008A68834B1A4002438A602068C16A626A8D
:103B700021F00F011143C1627E4923687E488B42C8
:103B80000DD1D0F8880010F0030006D0012855D0E0
:103B9000022842D003283FD152E001203DE077497E
:103BA0008B420BD1D0F8880010F00C0035D00428DF
:103BB00033D0082840D00C282ED141E070498B42E8
:103BC0000BD1D0F8880010F0300026D0102835D066
:103BD000202831D030281FD132E06A498B420BD1E6
:103BE000D0F8880010F0C00017D0402826D08028D8
:103BF00022D0C02810D123E063450DD1D0F8880031
:103C000010F4406009D0B0F5806F17D0B0F5006FA8
:103C100012D0B0F5406F13D010205B495B4F0026E7
:103C20004FF4004263453BD160B1022813D0042811
:103C30000BD0082872D10DE00220EEE70420ECE75B
:103C40000820EAE7FDF7F6FB01E0FDF717FC0100AD
:103C500001D17CE01146606A37F810206768B1FB3B
:103C6000F2F007EB4703834270D8B0EB073F6DD803
:103C7000002308461946FCF72DFB090241EA1061B2
:103C800002027808101871413A460023FCF722FB23
:103C90003F4AA0F54071914258D82168C86056E06B
:103CA000E3694FF6EF7893422CD109284ED2DFE832
:103CB00000F00508114D0D4D4D4D1000FDF7BAFBFC
:103CC00001E0FDF7C9FB010004D140E0FDF7D6FBA0
:103CD000F9E71146606A37F81000B1FBF0F04100D7
:103CE000606801EB5001B1FBF0F0A0F1100141451B
:103CF0002CD84FF6F0710140C0F342000143206818
:103D0000C16024E0092821D2DFE800F00509122073
:103D10000E2020201100FDF78DFB02E016E0FDF7DC
:103D20009BFB010004D112E0FDF7A8FBF9E7114667
:103D3000606A37F81000B1FBF0F1606801EB5001E8
:103D4000B1FBF0F0A0F1100141450AD90125012095
:103D5000A4F86A0024F8680F2846E6602661BDE8EA
:103D6000F08180B299E7000000800040F369FFCF46
:103D7000FFF4FF11003801400010024000440040F1
:103D800000480040004C00400024F400C6420008F7
:103D9000FFFC0F0070B58165A0F85C20A0F85E20E4
:103DA0000023436781684FF48056FF24B14204D159
:103DB0000169F9B940F2FF1122E07F25C1B1B1F1EB
:103DC000805F1AD0A0F86030C0F890302221C0F88F
:103DD0008C100168083151E8003F43F0010341E8CD
:103DE0000034002CF5D1416EB1F1005F0ED031E00E
:103DF000016941B9A0F86040E6E7016919B13F21C6
:103E0000A0F86010E0E7A0F86050DDE7B0F86810B7
:103E100091421FD88168B14201D10169B9B11D49F0
:103E20004167016941B1026852E8001F41F48071A5
:103E300042E80013002BF6D10168083151E8002F49
:103E400042F0805241E80023002BF5D120E01249D6
:103E50004167F1E78168B14201D1016969B10F4958
:103E60004167016959B1026852E8001F41F490713D
:103E700042E80013002BF6D10AE0094941670268C5
:103E800052E8001F41F0200142E80013002BF6D158
:103E9000002070BD8139000819370008B9380008C2
:103EA000513600082DE9F047994617460D4604465D
:103EB0004FF00008089E33E0701C31D0FCF786FEFE
:103EC000A0EB0900B04218D8BEB1206801684907CC
:103ED00026D5802D24D0402D22D0C169C9430907A1
:103EE0000DD4082505622046FFF788FBC4F89050E2
:103EF00084F884800120BDE8F0870320FBE7C069D7
:103F0000C04300050CD421684FF4006008622046CD
:103F1000FFF774FB2020C4F8900084F88480ECE75D
:103F20002068C06935EA000004D00020B842C3D040
:103F30000020E0E70120F9E7FEE70907090E002865
:103F400004DB00F1E02080F80014704700F00F005F
:103F500000F1E02080F8141D704700002DE9F047C3
:103F60008A463AA106468CB007C9002501AB2C460B
:103F700083E8270038A1059506950795D1E900014A
:103F8000CDE90801DFF8D880364F4BE0E00719D0C3
:103F9000D8F800004563F878012848D05046FCF76F
:103FA000D9FC04EBD479A6EB69022FA104A8FCF795
:103FB00009FA4FEA69022CA106A8FCF703FAE00708
:103FC00006D029E0D8F8000040F2CF714163E2E763
:103FD0002648007800BB64230B2201A92448FEF781
:103FE0006DFD6423052206A92148FEF767FD002E1A
:103FF0000BDD6423082208A91D48FEF75FFD14238A
:10400000052204A91A48FEF759FD16490A2303227E
:1040100012311748FEF752FDB878032801D0002E60
:1040200005DB641CB4EB460FB0DD002EAEDBD8F828
:10403000000045630B4964230A221F310C48FEF738
:104040003DFDBD700CB0BDE8F08700004C4544203C
:10405000626C696E6B3A00000920726573743A00F5
:104060001402002000000020256400005C000020F5
:10407000D00000202DE9F34F8FB006460025DFF871
:104080001491DFF814A172E044A203AB07CA83E8DD
:10409000070045A14FF00008D1E90001CDE90A0170
:1040A0004446CDF81880CDF81C80CDF820804746D6
:1040B0004FF4C77BCDF8248004EB84004100D9F88D
:1040C000000041639AF80300012804D0C72C09D3EB
:1040D0004FF0FF3008E004EB8400400049460A68D6
:1040E0005063FCE70CB90120804604EB080084B261
:1040F0000320FCF72FFC7F1C5F45DDDD1098FCF7EB
:1041000029FC2A462AA106A8FCF75CF9721B28A103
:1041100008A8FCF757F92748007800BB1E230C229B
:1041200003A92548FEF7CAFC1423052206A9224844
:10413000FEF7C4FC002E0BDD1E2308220AA91E4830
:10414000FEF7BCFC1423052208A91B48FEF7B6FCA9
:1041500011491E23032212311748FEF7AFFC9AF8CB
:104160000200042801D0002E09DB6D1CADB2B5425F
:1041700001DC012000E0002050EAD67084D111B0AB
:104180000549BDE8F04F32230A221F310A48FEF7E5
:1041900095BC000014020020000000204C45442083
:1041A0006272656174683A002020726573743A0027
:1041B000256400005C000020D0000020FCF718FE01
:1041C000FEF7B4FEFEF7DAFCFEF744FDFEF7D2FD83
:1041D000FEF714FDFEF770FDFEF740FEFEF70AFE47
:1041E000FEF792FD012226492648FEF7A9FA264845
:1041F000FDF70EFD08212548FDF7AAFF0021234801
:10420000FDF7A6FFFEF762FE204E1D4C4FF4FA7735
:104210004FF0FF380025A0780728FCD2DFE800F037
:1042200004050A0D12172100F5E7316840F2CF703E
:104230004863F0E730684563EDE739464046FFF7ED
:104240008DFEE8E739464046FFF714FFE3E7E088D4
:104250000028E0D021890029DDD000B2FFF77EFEE2
:1042600008E0E0880028D6D021890029D3D000B208
:10427000FFF700FFA570E5802581A581E581CAE7EC
:1042800000000020D0000020C801002014020020FF
:1042900010B500290AD00878002807D005487844CE
:1042A000FCF79CFA002801D0002010BD0248784499
:1042B00010BD00008A000000820000004FF0407036
:1042C000E1EE100A70470100020004000600080039
:1042D0000A000C00100020004000800000010101D5
:1042E00001030701000008040204080101010000A5
:1042F0000000000000000102030406070809000096
:1043000000000102030400003844000800000020FF
:104310005C00000014020008944400085C000020C7
:10432000FC080000300200081001000043000000FB
:10433000F8FFFFFF004040404040404040404141C6
:10434000414141404040404040404040404040406A
:104350004040404040050202020202020202020204
:104360000202020202202020202020202020200201
:104370000202020202029090909090901010101091
:10438000101010101010101010101010101010102D
:1043900002020202020288888888888808080808C1
:1043A000080808080808080808080808080808088D
:1043B00002020202400000000000000000000000B5
:1043C00000000000000000000000000000000000ED
:1043D00000000000000000000000000000000000DD
:1043E00000000000000000000000000000000000CD
:1043F00000000000000000000000000000000000BD
:1044000000000000000000000000000000000000AC
:10441000000000000000000000000000000000009C
:10442000000000000000000000000000000000008C
:10443000000000000000000000000000000000007C
:10444000000000000000000020000D0A0000000035
:104450000000000000000054414C4F533E3E0D0A46
:1044600000496E707574204572726F722121004C84
:104470004544204F4646210D0A004C4544204F4EEE
:10448000210D0A00100000000100000000000000E3
:044490000024F40010
:04000005080001D915
:00000001FF
